:020000040800F2
:1000000000000120890E0008B10D0008B30D0008A2
:10001000B50D0008B70D0008B90D0008000000007C
:10002000000000000000000000000000BB0D000800
:10003000BD0D000800000000BF0D0008C10D000844
:10004000D90E0008D90E0008D90E0008D90E0008F4
:10005000D90E0008D90E0008D90E0008D90E0008E4
:10006000D90E0008D90E0008D90E0008D90E0008D4
:10007000D90E0008D90E0008D90E0008D90E0008C4
:10008000D90E0008D90E0008D90E000800000000A3
:10009000000000000000000000000000D90E000871
:1000A000D90E0008D90E0008D90E0008D90E000894
:1000B000D90E0008D90E0008D90E0008D90E000884
:1000C000D90E0008D90E0008D90E0008D90E000874
:1000D000D90E0008D90E0008D90E00080000000053
:1000E000D90E0008D90E0008D90E00080000000043
:1000F000000000000000000000000000D90E000811
:1001000000000000D90E0008D90E0008D90E000822
:1001100000000000000000000000000000000000DF
:10012000D90E0008D90E0008D90E0008D90E000813
:10013000D90E0008000000000000000000000000D0
:10014000000000000000000000000000C90D0008D1
:10015000D90E0008D90E0008D90E0008D90E0008E3
:10016000D90E0008D90E00080000000000000000B1
:10017000000000000000000000000000000000007F
:1001800000000000D90E0008000000000000000080
:04019000D90E00087C
:1001A00010B5054C237833B9044B13B10448AFF3B1
:1001B00000800123237010BDFC010020000000001E
:1001C0004060000808B5034B1BB103490348AFF377
:1001D000008008BD00000000000200204060000810
:1001E00001F0FF01102A2BDB10F0070F08D010F8E8
:1001F000013B013A8B422DD010F0070F42B3F6D1EC
:10020000F0B441EA012141EA014122F007047FF004
:1002100000070023F0E80256083C85EA010586EA5B
:10022000010685FA47F5A3FA87F586FA47F6A5FA97
:1002300087F68EB9EED1F0BC01F0FF0102F00702A3
:1002400032B110F8013B013A83EA010313B1F8D14E
:100250000020704701387047002D06BF354603382F
:10026000073815F0010F07D1013015F4807F02BF68
:10027000013015F4C03F0130F0BC0138704700BFB9
:1002800053B94AB9002908BF00281CBF4FF0FF31FD
:100290004FF0FF3000F074B9ADF1080C6DE904CEF9
:1002A00000F006F8DDF804E0DDE9022304B0704751
:1002B0002DE9F047089D04468E46002B4DD18A4219
:1002C000944669D9B2FA82F252B101FA02F3C2F14C
:1002D000200120FA01F10CFA02FC41EA030E9440DD
:1002E0004FEA1C48210CBEFBF8F61FFA8CF708FBFE
:1002F00016E341EA034306FB07F199420AD91CEBD6
:10030000030306F1FF3080F01F81994240F21C8107
:10031000023E63445B1AA4B2B3FBF8F008FB10334F
:1003200044EA034400FB07F7A7420AD91CEB040484
:1003300000F1FF3380F00A81A74240F20781644454
:10034000023840EA0640E41B00261DB1D4400023D9
:10035000C5E900433146BDE8F0878B4209D9002D3D
:1003600000F0EF800026C5E9000130463146BDE8C7
:10037000F087B3FA83F6002E4AD18B4202D3824231
:1003800000F2F980841A61EB030301209E46002DE0
:10039000E0D0C5E9004EDDE702B9FFDEB2FA82F235
:1003A000002A40F09280A1EB0C014FEA1C471FFA93
:1003B0008CFE0126200CB1FBF7F307FB131140EA7A
:1003C00001410EFB03F0884208D91CEB010103F147
:1003D000FF3802D2884200F2CB804346091AA4B209
:1003E000B1FBF7F007FB101144EA01440EFB00FEDD
:1003F000A64508D91CEB040400F1FF3102D2A64542
:1004000000F2BB800846A4EB0E0440EA03409CE7E0
:10041000C6F12007B34022FA07FC4CEA030C20FA8D
:1004200007F401FA06F31C43F9404FEA1C4900FAAD
:1004300006F3B1FBF9F8200C1FFA8CFE09FB18112A
:1004400040EA014108FB0EF0884202FA06F20BD99D
:100450001CEB010108F1FF3A80F08880884240F2ED
:100460008580A8F102086144091AA4B2B1FBF9F031
:1004700009FB101144EA014100FB0EFE8E4508D92C
:100480001CEB010100F1FF346CD28E456AD90238B1
:10049000614440EA0840A0FB0294A1EB0E01A14296
:1004A000C846A64656D353D05DB1B3EB080261EB04
:1004B0000E0101FA07F722FA06F3F1401F43C5E9DE
:1004C000007100263146BDE8F087C2F12003D84014
:1004D0000CFA02FC21FA03F3914001434FEA1C4756
:1004E0001FFA8CFEB3FBF7F007FB10360B0C43EA48
:1004F000064300FB0EF69E4204FA02F408D91CEBF8
:10050000030300F1FF382FD29E422DD902386344F5
:100510009B1B89B2B3FBF7F607FB163341EA034195
:1005200006FB0EF38B4208D91CEB010106F1FF38E4
:1005300016D28B4214D9023E6144C91A46EA0046DB
:1005400038E72E46284605E70646E3E61846F8E66D
:100550004B45A9D2B9EB020864EB0C0E0138A3E7B6
:100560004646EAE7204694E74046D1E7D0467BE797
:10057000023B614432E7304609E76444023842E70F
:10058000704700BF30B58BB00024059406940794E3
:100590000894099401941F4B1A6B42F080021A636D
:1005A0001A6B02F080020192019A02941A6B42F0D7
:1005B00001021A631A6B02F001020292029A03947A
:1005C0001A6B42F004021A631A6B02F004020392DF
:1005D000039A04941A6B42F002021A631B6B03F035
:1005E00002030493049B0C4D22461021284600F080
:1005F00027FE01222021284600F022FE3023059309
:10060000012306930794089405A9284600F038FDB5
:100610000BB030BD003802400008024010B584B075
:10062000104C01222021204600F00AFE0022102159
:10063000204600F005FE41F28833009301230DF1BE
:100640000F020949094802F068F9012210212046E9
:1006500000F0F6FD00222021204600F0F1FD04B05C
:1006600010BD00BF000802409D00002018020020BD
:1006700008B538B9064A137823F002031370FFF760
:10068000CDFF08BD024A137843F002031370F6E76A
:100690009D00002008B538B9064A137823F00103FD
:1006A0001370FFF7BBFF08BD024A137843F0010344
:1006B0001370F6E79D00002030B587B08DF80F006D
:1006C0008DF80E100020FFF7D3FF9DF80F3043F098
:1006D00020038DF80F300D4C42F210750095012368
:1006E0000DF117020DF10F01204602F016F90095E9
:1006F00001230DF117020DF10E01204602F00DF954
:100700000120FFF7B5FF07B030BD00BF1802002081
:1007100000B587B08DF80F000020FFF7A9FF42F267
:100720001073009301230DF117020DF10F010F4813
:1007300002F0F3F89DF80F30072B07D10120FFF7E7
:1007400097FF9DF8170007B05DF804FBFF238DF8B5
:100750000F304FF4FA73009301230DF117020DF1DE
:100760000F01024802F0D9F8E8E700BF18020020A4
:1007700000B585B0962000F003FC1A4B93E8030007
:1007800002908DF80C1000908DF804100E210020BE
:10079000FFF792FFC82000F0F3FB022000F0F0FB0F
:1007A00000210120FFF788FF01210220FFF784FFCD
:1007B00000210520FFF780FF03210846FFF77CFF9B
:1007C00026210620FFF778FF20211120FFF774FF74
:1007D00070210720FFF770FF052000F0D1FB05B066
:1007E0005DF804FB7860000830B583B00546002052
:1007F000FFF750FF012000F0C3FB0020FFF738FF98
:10080000A0238DF8073001231A460DF10701174880
:1008100001F0A7FF002407E001231A462919134815
:1008200001F09FFF0134E4B21F2CF5D9012000F044
:10083000A7FB0120FFF71CFF0120FFF72BFF012082
:1008400000F09EFB0020FFF725FF00241720FFF794
:100850005FFF10F0100F06D00134E4B2012000F069
:100860008FFB632CF2D903B030BD00BF180200200B
:10087000F0B583B00546002428E01A1BE95C083275
:100880006A4402F8081C1E46DF170133621D9A42B3
:1008900001DB9F2BF1DDA02E77F1000302DA0023AC
:1008A000012004E07E4804F04DFCF8E70133052BFD
:1008B0000ADC03F108026A4412F8081C794AD25C87
:1008C0009142F3D00020F1E738B901349F2C07DCC6
:1008D0002B5D242BF9D12346D8E72346E41701E00A
:1008E000714B0024704A002C08BF934207D16F4817
:1008F00004F028FC0A20CCE0013344F10004EA5C57
:100900002C2A03D0A02B74F10002F5DB013344F153
:10091000000402E0013344F10004EA5C2C2A03D015
:10092000A02B74F10002F5DB5A1C44F10006A85C10
:100930002C281FD09A1C5E494873D81CAA5C8A7365
:100940001A1D285C0874581DAA5C4A749A1D285CFC
:100950008874D81DAA5CCA7413F10802285C087553
:1009600013F10900AA5C4A7513F10A0244F100066A
:100970002B5C8B75531CEB5C2C2B01D04C49CB753D
:10098000D11C46F100006C5C2C2C2FD0101D484B64
:1009900083F82740511D285C83F82800901D695C6E
:1009A00083F82910D11D285C83F82B0012F1080070
:1009B000695C83F82C1012F10901285C83F82D0082
:1009C00012F10A00695C83F82E1012F10B01285C09
:1009D00083F82F0012F10C04695C83F8301012F1D7
:1009E0000D0146F100002A5D83F831204B1C40F1D7
:1009F0000002EC5C2C2C05D08B1C40F100022C4931
:100A000081F83240013342F1000202E0013342F149
:100A10000002E95C2C2903D0A02B72F10001F5DB68
:100A2000013342F10002E95C2C2907D0A02B72F1BE
:100A3000000103DA013342F10002F4E7013342F12D
:100A4000000202E0013342F10002E95C2C2903D0EC
:100A5000A02B72F10001F5DB013342F100021946CF
:100A6000C817CC1A60EB0200092C70F100000BDAF9
:100A70009F2909DC6C5C2C2C06D001F13F00C01AC8
:100A80000B4E34540131EBE7A02B72F1000302DA74
:100A9000002003B0F0BD074804F054FB1420F8E731
:100AA0008060000824610008FEFFFF7FD46000081A
:100AB00000000020FC60000800B583B04FF47A739A
:100AC00001220DF10701044802F03FF99DF80700EB
:100AD00003B05DF804FB00BF7002002072B6FEE7B1
:100AE00008B50D480D4B03604FF48273436000233B
:100AF0008360C360036143614FF400728261C3612C
:100B00000362436283620A23C36201F0CBFD00B932
:100B100008BDFFF7E3FF00BF1802002000380040C7
:100B200008B50A480A4B03604FF4E13343600023E1
:100B30008360C36003610C2242618361C36102F080
:100B4000D5F800B908BDFFF7C9FF00BF700200204B
:100B50000044004000B595B03022002108A804F000
:100B600063FA002303930493059306930793019379
:100B7000204A116C41F080511164126C02F08052D5
:100B80000192019A02931C4A136823F4404343F4F0
:100B900000431360136803F440430293029B012354
:100BA00008934FF48033099302230E934FF480038C
:100BB0000F93062310936022119212930423139330
:100BC00008A801F0ADF988B90F2303930223049319
:100BD000802305934FF4A05306930793002103A8A5
:100BE00001F0ECFB20B915B05DF804FBFFF776FFD0
:100BF000FFF774FF003802400070004010B5B0B03D
:100C000000F092F9FFF7A6FFFFF7BCFCFFF768FFC3
:100C100003F0A0FFFFF784FFFFF7AAFD0DE0194ADC
:100C2000D15C194AD15401334C2BF8D91648FFF73F
:100C3000DBFD4FF47A7000F0A3F9144B93E8030046
:100C40000090ADF804100024CDF80640CDF80A401D
:100C5000CDF80E40CDF81240CDF81640CDF81A4030
:100C6000ADF81E404FF47A73A02208A9084802F09C
:100C70006CF808A8FFF7FCFD0349064804F0DCF90E
:100C80002346D1E7500000200000002058600008F3
:100C9000700200202C61000882B0002100910B4BF3
:100CA0005A6C42F480425A645A6C02F480420092B8
:100CB000009A01911A6C42F080521A641B6C03F086
:100CC00080530193019B02B0704700BF003802407F
:100CD00000B589B00023039304930593069307930B
:100CE0000268154B9A4202D009B05DF804FB00215E
:100CF000019103F500331A6C42F480421A641A6CB5
:100D000002F480420192019A02911A6B42F00202AF
:100D10001A631B6B03F002030293029B4FF46043C0
:100D2000039302230493032306930523079303A944
:100D3000024800F0A5F9D7E700380040000402405F
:100D400000B589B00023039304930593069307939A
:100D50000268154B9A4202D009B05DF804FB0021ED
:100D6000019103F5FA331A6C42F400321A641A6CDA
:100D700002F400320192019A02911A6B42F00102D0
:100D80001A631B6B03F001030293029B0C23039372
:100D900002230493032306930723079303A903481D
:100DA00000F06EF9D8E700BF0044004000000240A8
:100DB000FEE7FEE7FEE7FEE7FEE770477047704795
:100DC00008B500F0CBF808BD08B5024800F09AFD60
:100DD00008BD00BF6C0F002070B50C4616460025FC
:100DE00006E0FFF769FE214601F8010B01350C46CC
:100DF000B542F6DB304670BD70B50C461646002590
:100E000004E014F8010BAFF300800135B542F8DBC4
:100E1000304670BD4FF0FF3070474FF400534B60C9
:100E200000207047012070470020704710B503462E
:100E30000C4A0D490D48006840B10C480068034455
:100E4000521A934206D8094A136010BD0748084C4D
:100E50000460F2E704F0BEF80C2303604FF0FF30AB
:100E6000F3E700BF0000012000040000B4020020EE
:100E7000A8160020034AD2F8883043F47003C2F861
:100E80008830704700ED00E0DFF834D00D480E499F
:100E90000E4A002302E0D458C4500433C4188C42D4
:100EA000F9D30B4A0B4C002301E013600432A24239
:100EB000FBD3FFF7DFFF04F093F8FFF79FFE7047C7
:100EC0000000012000000020FC0100203C6200081E
:100ED000FC010020A8160020FEE7000010B5044623
:100EE0000E4B18784FF47A73B3FBF0F30C4A10688A
:100EF000B0FBF3F000F0B0F868B90F2C01D9012075
:100F00000AE0002221464FF0FF3000F05FF8054B69
:100F10001C60002000E0012010BD00BFA4000020E4
:100F2000A0000020A800002008B50B4B1A6842F46E
:100F300000721A601A6842F480621A601A6842F4F9
:100F400080721A60032000F02FF80F20FFF7C6FF11
:100F5000FFF7A2FE002008BD003C0240034A1168D2
:100F6000034B1B780B441360704700BFB80200208E
:100F7000A4000020014B1868704700BFB802002091
:100F800038B50446FFF7F6FF0546B4F1FF3F02D03F
:100F9000044B1B781C44FFF7EDFF401BA042FAD323
:100FA00038BD00BFA4000020074AD36823F4E063E3
:100FB0001B041B0C000200F4E060034343F0BF631A
:100FC00043F40033D360704700ED00E000B5194BE7
:100FD000DB68C3F30223C3F1070CBCF1040F28BF85
:100FE0004FF0040C03F1040EBEF1060F18D9033BB9
:100FF0004FF0FF3E0EFA0CFC21EA0C0199400EFA6C
:1010000003F322EA0303194300280BDB0901C9B2E9
:1010100000F1604000F5614080F800135DF804FBCA
:101020000023E5E700F00F000901C9B2024B195493
:10103000F4E700BF00ED00E014ED00E0002807DB5E
:1010400000F01F02400901239340024A42F8203079
:10105000704700BF00E100E00138B0F1807F0BD2A3
:101060004FF0E0235861054AF02182F82310002058
:10107000986107221A6170470120704700ED00E077
:1010800000230F2B00F2D28070B582B060E085683B
:101090005E000324B44025EA0405CC68B4402C4328
:1010A0008460456825EA02054C68C4F300129A4042
:1010B0002A4342605AE0DC08083450F8246003F008
:1010C000070295000F22AA4026EA020E0A69AA40EA
:1010D00042EA0E0240F824205CE0042200E00022F4
:1010E00002FA0EF22A430234514D45F82420514AA7
:1010F00094686FEA0C0224EA0C054E6816F4801F0F
:1011000001D04CEA04054B4CA560E46802EA0405F2
:101110004E6816F4001F01D04CEA0405454CE5600A
:10112000646802EA04054E6816F4003F01D04CEAF8
:101130000405404C6560246822404D6815F4803FEA
:1011400001D04CEA04023B4C226001330F2B6BD8D8
:1011500001229A400C6804EA020C32EA0404F4D139
:101160004C6804F00304013C012C90D94A6802F059
:101170000302032A09D0C4685D000322AA4024EABE
:1011800002048A68AA402243C2604A6802F003024D
:10119000022A90D004684FEA430E032202FA0EF2AC
:1011A00024EA02044A6802F0030202FA0EF2224321
:1011B00002604A6812F4403FC7D0002201921E4AE2
:1011C000546C44F480445464526C02F480420192A2
:1011D000019A9C08A51C164A52F8255003F00302F8
:1011E0004FEA820E0F2202FA0EF225EA0205134A96
:1011F00090423FF474AF02F5806290420ED002F547
:10120000806290420CD002F5806290420AD002F5D2
:10121000806290423FF461AF072261E701225FE7FD
:1012200002225DE703225BE702B070BD704700BF9A
:1012300000380140003C01400038024000000240FC
:101240000AB1816170470904816170472DE9F0435B
:1012500083B0D0F8008001EBC10300EB8303DA6DAB
:101260005B6D9A4254D807460C469B1A01EBC102AB
:1012700000EB8202926C9A4200D31A4602F10309F3
:101280004FEA990915E006F103094FEA990904EBC1
:10129000C40507EB8505E96C3B7C0093B3B2E2B271
:1012A000404602F090F9EB6C3344EB64EB6D334451
:1012B000EB6508EB441303F510639B699BB24B4548
:1012C00012D304EBC40207EB8202D16D536D994235
:1012D0000AD24BB15B1A04EBC40207EB8202966C94
:1012E0009E42D0D31E46CEE704EBC40007EB800736
:1012F0007A6DFB6D9A420FD804F00F040123A340CE
:10130000D8F8344824EA0304C8F83448002000E040
:10131000012003B0BDE8F0830020FAE770B58AB081
:10132000002800F090800546046890F8BD343BB377
:10133000032385F8BD34E36B13F4807F01D10023D0
:101340002B61286801F05AFE2C4654F8106BEC46CD
:101350000FCCACE80F000FCCACE80F0094E8030012
:101360008CE803002B1D0ECB304601F089FD0446AE
:1013700058B1022385F8BD34012420460AB070BD5F
:1013800080F8BC3403F0D2FCD2E70021286802F0D8
:1013900031FB234616E003EBC30205EB8202012179
:1013A00082F83D1082F83C30A2F84430002182F8E7
:1013B00040109164D16403EBC30205EB82025165D6
:1013C0000133DBB269688B42E5D316E004EBC4035A
:1013D00005EB8303002283F87D2283F87C4283F8A7
:1013E0008022C3F88822C3F88C2204EBC40305EBE7
:1013F0008303C3F894220134E4B2A142E6D82C4618
:1014000054F8106BEC460FCCACE80F000FCCACE8F6
:101410000F0094E803008CE803002B1D0ECB304630
:1014200001F048FE044620B1022385F8BD340124B2
:10143000A3E7002385F83830012385F8BD342868F8
:1014400002F095FA99E7012497E7026890F8BC3416
:10145000012B19D010B50446012380F8BC34836AEF
:10146000012B09D0206801F0C3FD206802F071FA59
:10147000002084F8BC0410BD8369012BF2D0936B6B
:1014800043F480339363EDE70220704770B5044660
:101490000D460068066C00EB411303F530639A6853
:1014A0002169012911D038498E4256D03DB905EB4A
:1014B000C50304EB8303D3F89432002B5ED0E9B26A
:1014C000204603F07DFC002070BD12F0080F09D00B
:1014D0002E498E42F7D912F4004FF4D04FF4004257
:1014E0009A60F0E712F0200F02D020229A60EAE71B
:1014F00012F0280FE7D125498E4206D912F4004F89
:1015000003D04FF400429A60DDE705EBC50204EB1F
:101510008202D2F898121B69C3F31203CB1AC2F8E5
:101520009C327DB905EBC50204EB8202D2F894220D
:101530006AB105EBC50204EB8202D2F88C120B44AF
:10154000C2F88C32E9B2204603F03AFCBBE704F261
:10155000C442012102F090FAF4E712F4004F03D0E4
:101560004FF400429A60AEE712F0200F01D0202223
:101570009A60E9B2204603F023FCA4E704F2C442D7
:10158000002102F079FA9AE70A31544F0A30544F99
:1015900038B5044603681D6C03EB4113D3F8081BF0
:1015A0000E4A954207D903F5306311F4004F02D07B
:1015B0004FF400429A60204603F0FAFB074B9D422D
:1015C00002D92369012B01D0002038BD04F2C442A6
:1015D0000121206802F050FAF6E700BF0A30544FAC
:1015E00090F8BC34012B0DD010B50446012380F8CF
:1015F000BC3480F83810006802F09BF9002084F8B1
:10160000BC0410BD0220704738B505468C4611F069
:10161000800F29D101F00F0E0EEBCE04A40004F5CB
:101620001E740444211D0EEBCE0E00EB8E0E002026
:101630008EF87D020CF00F0C81F800C0CA600B71AF
:101640004A780AB1A1F808C0022B1DD095F8BC3425
:10165000012B1CD0012385F8BC34286801F003FE5F
:10166000002085F8BC0438BD01F00F0000EBC0017C
:10167000890038312944043100EBC00005EB8000BB
:10168000012480F83D40D5E700234B71DEE70220BE
:10169000E9E710B504460A4611F0800F20D101F0A9
:1016A0000F0000EBC0039B0003F51E732344191DBC
:1016B00000EBC00004EB8000002380F87D3202F0D4
:1016C0000F020A7094F8BC34012B19D0012384F85E
:1016D000BC34206801F016FE002084F8BC0410BD64
:1016E00001F00F0000EBC0039B0038332344191DA9
:1016F00000EBC00004EB8000012380F83D30DEE702
:101700000220ECE710B501F00F0404EBC4018900DE
:1017100001F51E710144043104EBC40C00EB8C0C88
:10172000CCF88C22CCF894320023CCF89C328CF884
:101730007D328CF87C420369012B06D064B9DAB2A1
:10174000006801F04FFE002010BD04EBC40C00EB5C
:101750008C0CCCF89022F1E7DAB2006801F04AFF75
:10176000F1E701F00F0101EBC10100EB8101D1F8BC
:101770009C02704710B501F00F0404EBC40189000E
:1017800038310144043104EBC40C00EB8C0CCCF870
:101790004C20CCF854300023CCF85C3001238CF87A
:1017A0003D308CF83C400369012B06D064B9DAB2B5
:1017B000006801F017FE002010BD04EBC40C00EB24
:1017C0008C0CCCF85020F1E7DAB2006801F012FF7F
:1017D000F1E738B501F00F054268954239D8044663
:1017E0000B4611F0800F1FD101EBC101890001F5FB
:1017F0001E710144043103EBC30300EB8303002299
:1018000083F87D2201238B700D7094F8BC34012B7A
:1018100021D0012384F8BC34206802F02FF88DB168
:10182000002084F8BC0438BD05EBC50189003831BF
:101830000144043105EBC50300EB8303012283F867
:101840003D20DFE704F2C442217C206802F014F955
:10185000E6E70120E7E70220E5E701F00F03426831
:10186000934231D810B5044611F0800F1ED103EB1E
:10187000C301890001F51E710144043103EBC30269
:1018800000EB8202002082F87D0200228A700B7039
:1018900094F8BC34012B19D0012384F8BC3420689F
:1018A00002F019F8002084F8BC0410BD03EBC3015A
:1018B000890038310144043103EBC30200EB82029A
:1018C000012082F83D00E0E7012070470220ECE7AC
:1018D00008B511F0800F0CD101F00F0101EBC1012F
:1018E000890001F51E7101440431006801F00CFE0D
:1018F00008BD01F00F0101EBC1018900383101443D
:101900000431F2E72DE9F04F83B00446056828461C
:1019100002F06CF810B103B0BDE8F08F0646206805
:1019200002F033F80028F6D005F50067BB68C3F372
:101930000D23C4F8FC34206802F027F810F0020FE1
:1019400004D02268536903F002035361206802F057
:101950001CF810F0100F13D02268936923F01003C5
:101960009361D5F8208008F00F09C8F34343022B98
:101970004BD0062B6FD02268936943F0100393611C
:10198000206802F002F810F4002F76D1206801F0F0
:10199000FCFF10F4802F40F0E080206801F0F5FF9C
:1019A0000028C0F26381206801F0EFFF10F4006F9F
:1019B00009D0BB6813F0010F40F0708122685369B1
:1019C00003F400635361206801F0DFFF10F4805FCF
:1019D00040F06881206801F0D8FF10F4005F40F00B
:1019E000B581206801F0D1FF10F0080F40F0C681EA
:1019F000206801F0CAFF10F0800F00F0D981AB69B8
:101A000023F08003AB610126C2E147F6F07318EAC8
:101A1000030FB0D04FEA181B4FEAC903019309EB3B
:101A2000C90A04EB8A0AC8F30A12DAF88C122846AB
:101A300001F0FAFECBF30A0BDAF88C325B44CAF8F9
:101A40008C32019B4B4404EB8303D3F89C325B4400
:101A5000CAF89C328FE7082204F2C441284601F0FC
:101A6000E3FEC8F30A1809EBC90204EB8202D2F8BC
:101A70009C324344C2F89C327DE7206801F089FF24
:101A80008046B14635E005EB49130122C3F8082B27
:101A900049462046FFF7FAFC3CE005EB49130822D3
:101AA000C3F8082B49462046FFF772FD35E009EBE5
:101AB000C90304EB830393F87F32012B41D005EB7C
:101AC00049130222C3F8082B1AF0200F04D005EBAB
:101AD00049132022C3F8082B1AF4005F05D005EB48
:101AE00049134FF40052C3F8082B09F101094FEADA
:101AF0005808B8F1000F3FF449AF18F0010FF4D0C7
:101B00005FFA89FB5946206801F053FF824610F0C6
:101B1000010FB8D11AF0080FBFD11AF0100F04D07E
:101B200005EB49131022C3F8082B1AF0020FCBD093
:101B30006B6913F0800FBAD07B6843F480637B60DD
:101B4000B5E709EBC90304EB8303002283F87F2286
:101B50005946204603F082F9B1E7206801F021FFE1
:101B60008046B14625E05946204603F035F91AF083
:101B7000080F04D005EB49130822C3F808291AF00E
:101B8000100F04D005EB49131022C3F808291AF0EE
:101B9000400F04D005EB49134022C3F808291AF07E
:101BA000020F40D11AF0800F5BD109F101094FEA11
:101BB0005808B8F1000F3FF4F0AE18F0010FF4D060
:101BC0005FFA89FB5946206801F0FCFE824610F05E
:101BD000010FCCD009F00F03012101FA03F27B6B56
:101BE00023EA02037B6305EB4913C3F80819236951
:101BF0008B42B8D109EBC90304EB8303996CDA6C0F
:101C00000A44DA64B9F1000FADD109EBC90304EB62
:101C100083035B6D002BA6D104F2C442012120682E
:101C200001F02AFF9FE74946284601F0EDF909EB4C
:101C3000C90304EB830393F83F30012B05D005EB78
:101C400049130222C3F80829ACE709EBC90304EBE6
:101C50008303002283F83F205946204603F004F90D
:101C6000EDE749462046FFF7F1FA9EE77B6823F04F
:101C700001037B6094F8F434012B08D0204603F074
:101C8000E7F82268536903F0004353618BE60021B3
:101C900084F8F414204600F041F9F2E7204603F0FE
:101CA000BFF88BE67B6823F001037B60102120687E
:101CB00001F0AAF91AE005EB46134FF67F31C3F89D
:101CC0000819D3F8002922F40012C3F80029C3F838
:101CD000081BD3F8002B22F40012C3F8002BD3F812
:101CE000002B42F00062C3F8002B01366368B34258
:101CF000E1D8FB6943F00113FB61236BDBB1D7F83B
:101D0000843043F00B03C7F884307B6C43F00B0343
:101D10007B64D5F8003823F4FE63C5F8003804F27C
:101D2000C442217C206801F0A7FE2268536903F4B5
:101D3000805353614EE67B6943F4005343F02B0319
:101D40007B613B6943F00B033B61E2E7206801F0F4
:101D500082FE206801F076FAE060266800F0DEFB83
:101D60000146227B304601F0D1F8204603F045F8C9
:101D70002268536903F40053536132E6204603F0AE
:101D800036F82268536903F00803536130E60136E0
:101D90006368B3420CD906EBC60304EB830393F8E4
:101DA0007F32012BF3D1F1B22046FFF791FDEEE730
:101DB000206801F0EAFD10F4801F27D1206801F0AF
:101DC000E4FD10F4001F5BD0012328E001366368B6
:101DD000B3421DD905EB4613D3F8002906EBC60321
:101DE00004EB830393F84030012BEFD1002AEDDAA6
:101DF00006EBC60304EB8303012283F83F2066F061
:101E00007F01C9B22046FFF763FDDFE70126DEE769
:101E10002268536903F480135361CFE7013362688A
:101E20009A4228D905EB4312D2F8001B03EBC302F8
:101E300004EB820292F88022012AEFD10029EDDA28
:101E400001F48031D4F8FC2402F001029142E5D182
:101E500003EBC30204EB8202012182F87F12AA691C
:101E600042F08002AA616A6912F0800FD6D17B68C5
:101E700043F400737B602268536903F400135361D9
:101E8000206801F082FD10F0804F10D1206801F031
:101E90007CFD10F0040F3FF43EAD23685D6815F043
:101EA000040F0DD1226853682B43536033E520465D
:101EB00002F0E0FF2268536903F080435361E5E7D5
:101EC000204602F0DDFFEDE710B40468606A31B926
:101ED00040EA0240A06200205DF8044B70478C4647
:101EE000A36A00EB1340002308E003F1400104EB78
:101EF0008101496800EB11400133DBB20CF1FF3185
:101F00008B42F2D340EA02400CF13F0104EB810125
:101F10004860E0E70368596200207047704700009E
:101F2000002800F0E08170B582B00446036813F029
:101F3000010F3BD09F4B9B6803F00C03042B2CD06C
:101F40009C4B9B6803F00C03082B21D06368B3F50E
:101F5000803F4FD0B3F5A02F52D0964B1A6822F491
:101F600080321A601A6822F480221A606368002B9B
:101F700050D0FEF7FFFF05468E4B1B6813F4003F61
:101F800014D1FEF7F7FF401B6428F5D90320B1E117
:101F9000884B5B6813F4800FD8D0864B1B6813F412
:101FA000003F03D06368002B00F09F81236813F08B
:101FB000020F54D07F4B9B6813F00C0F3ED07D4B2B
:101FC0009B6803F00C03082B33D0E368002B68D028
:101FD000794B01221A60FEF7CDFF0546754B1B6851
:101FE00013F0020F54D1FEF7C5FF401B0228F5D9AC
:101FF00003207FE16F4A136843F480331360B5E731
:102000006C4B1A6842F480221A601A6842F48032DB
:102010001A60ABE7FEF7AEFF0546664B1B6813F48C
:10202000003FC3D0FEF7A6FF401B6428F5D903206C
:1020300060E1604B5B6813F4800FC6D15D4B1B6899
:1020400013F0020F03D0E368012B40F05081594A8E
:10205000136823F0F803216943EAC103136023687E
:1020600013F0080F42D063696BB3534B0122C3F8DE
:10207000802EFEF77FFF05464E4B5B6F13F0020F7D
:1020800034D1FEF777FF401B0228F5D9032031E158
:10209000484A136823F0F803216943EAC103136037
:1020A000DDE7454B00221A60FEF764FF0546414B11
:1020B0001B6813F0020FD2D0FEF75CFF401B022812
:1020C000F5D9032016E13C4B0022C3F8802EFEF721
:1020D00051FF0546374B5B6F13F0020F06D0FEF73A
:1020E00049FF401B0228F5D9032003E1236813F0C0
:1020F000040F77D02F4B1B6C13F0805F33D100237C
:1021000001932C4B1A6C42F080521A641B6C03F042
:1021100080530193019B0125284B1B6813F4807F9A
:1021200023D0A368012B34D0052B38D0214B1A6F54
:1021300022F001021A671A6F22F004021A67A368DC
:10214000002B3DD0FEF716FF06461A4B1B6F13F00F
:10215000020F46D1FEF70EFF801B41F288339842F2
:10216000F3D90320C6E00025D6E7144A136843F4E8
:1021700080731360FEF7FEFE0646104B1B6813F4D7
:10218000807FCED1FEF7F6FE801B0228F5D9032012
:10219000B0E0084A136F43F001031367CFE7054B24
:1021A0001A6F42F004021A671A6F42F001021A67AE
:1021B000C5E700BF00380240000047420070004001
:1021C000FEF7D8FE0646524B1B6F13F0020F08D0E5
:1021D000FEF7D0FE801B41F288339842F3D90320EA
:1021E00088E0EDB9A369002B00F08380484A92682B
:1021F00002F00C02082A51D0022B17D0454B0022C6
:102200001A66FEF7B7FE0446414B1B6813F0007FC9
:1022100042D0FEF7AFFE001B0228F5D9032069E08B
:102220003B4A136C23F080531364DBE7394B0022E5
:102230001A66FEF79FFE0546354B1B6813F0007FBC
:1022400006D0FEF797FE401B0228F5D9032051E087
:10225000E369226A1343626A43EA8213A26A52085C
:10226000013A43EA0243E26A43EA0263284A5360BE
:10227000284B01221A66FEF77DFE0446244B1B689C
:1022800013F0007F06D1FEF775FE001B0228F5D97A
:1022900003202FE000202DE000202BE0012B2BD08D
:1022A0001B4B5B6803F48001E269914226D103F085
:1022B0003F02216A8A4223D1616A47F6C0721A40FE
:1022C000B2EB811F1ED103F44031A26A5208013AD9
:1022D000B1EB024F18D103F07063E26AB3EB026F07
:1022E00014D1002006E001207047012002E0012007
:1022F00000E0002002B070BD0120FBE70120F9E7FB
:102300000120F7E70120F5E70120F3E70120F1E7DD
:10231000003802400000474208B5254B9B6803F097
:102320000C03042B3FD0082B3FD1214B5A6802F0FD
:102330003F025B6813F4800F12D01D4B5968C1F344
:1023400088111C480023A1FB0001FDF799FF184BE1
:102350005B68C3F3014301335B00B0FBF3F025E09E
:10236000134B5968C1F3881C4FEA4C11B1EB0C00B8
:102370006EEB0E0E4FEA8E1343EA90638101091A49
:1023800063EB0E03DB0043EA5173C90011EB0C0C45
:1023900043F10003990200234FEA8C2041EA9C514B
:1023A000FDF76EFFD3E7034800E0034808BD00BF18
:1023B00000380240001BB7000024F400002800F0A1
:1023C0009B8070B50D4604464F4B1B6803F0070316
:1023D0008B4208D2CBB24C4A1370136803F0070348
:1023E0008B4240F08B80236813F0020F17D013F05C
:1023F000040F04D0454A936843F4E0539360236884
:1024000013F0080F04D0414A936843F4604393608B
:102410003E4A936823F0F003A1680B43936023685E
:1024200013F0010F32D06368012B21D09A1E012ACC
:1024300025D9364A126812F0020F61D033498A68F2
:1024400022F0030213438B60FEF794FD06462F4BE8
:102450009B6803F00C036268B3EB820F16D0FEF7A3
:1024600089FD801B41F288339842F0D9032042E075
:10247000264A126812F4003FE0D101203BE0234AD3
:10248000126812F0007FD9D1012034E01E4B1B6886
:1024900003F00703AB4207D9EAB21B4B1A701B6863
:1024A00003F00703AB422DD1236813F0040F06D0CD
:1024B000164A936823F4E053E1680B439360236862
:1024C00013F0080F07D0114A936823F46043216981
:1024D00043EAC1039360FFF71FFF0C4B9B68C3F3F4
:1024E00003130B4AD35CD8400A4B18600A4B186898
:1024F000FEF7F4FC002070BD012070470120FAE7D0
:102500000120F8E70120F6E7003C024000380240D5
:1025100034610008A0000020A8000020014B1868CA
:10252000704700BFA000002008B5FFF7F7FF044B7D
:102530009B68C3F38223034AD35CD84008BD00BF25
:10254000003802404461000808B5FFF7E7FF044B7C
:102550009B68C3F34233034AD35CD84008BD00BF35
:1025600000380240446100082DE9F04782B005467A
:10257000884617461E46FEF7FDFC0A9B1B1A03EB16
:102580000609FEF7F7FC82462B4B1B68C3F3CB33DF
:1025900009FB03F301932B689C6838EA04030CBF22
:1025A0004FF0010C4FF0000CBC4540D0B6F1FF3F9E
:1025B000F1D0FEF7DFFCA0EB0A0048450AD2B9F1E2
:1025C000000F07D0019A02B14A46019B013B0193DB
:1025D0009146E0E72A68536823F0E00353606B6894
:1025E000B3F5827F0BD0AB6AB3F5005F14D0012343
:1025F00085F85130002385F85030032018E0AB688F
:10260000B3F5004F02D0B3F5806FECD12A681368A0
:1026100023F040031360E6E72A68136823F40053AD
:1026200013602A68136843F400531360DFE7002047
:1026300002B0BDE8F08700BFA000002010B584B054
:102640000446164B1868164BA3FB0030400D4FF4A0
:102650007A7303FB00F003906368B3F5827F0BD0BD
:10266000039BBBB1039B013B039323689B6813F05F
:10267000800FF5D100200EE000920B460022802151
:102680002046FFF771FF30B1636D43F020036365AF
:10269000032000E0002004B010BD00BFA000002017
:1026A000819F5E1600285AD010B50446436A33B99C
:1026B0004368B3F5827F05D00023C36102E00023A5
:1026C000036143610023A36294F85130002B40D092
:1026D000022384F851302268136823F0400313600A
:1026E000636803F48273A26802F404421343E2684D
:1026F00002F400621343226902F00202134362698A
:1027000002F001021343A26902F400721343E2696A
:1027100002F038021343226A02F080021343A26AD5
:1027200002F40052216813430B60638B03F004032F
:10273000626A02F01002216813434B602268D36979
:1027400023F40063D36100206065012384F85130D5
:1027500010BD84F850302046FEF7BAFAB8E70120E1
:1027600070472DE9F04383B01D4690F85030012B9F
:1027700000F0D180044688469146012380F850300D
:10278000FEF7F8FB074694F85160F6B2012E40F0D0
:10279000AF80B8F1000F00F0AC80B9F1000F00F08D
:1027A000A880032384F8513000236365C4F8308087
:1027B000A4F83490A4F83690A363A387E3876364F6
:1027C0002364A368B3F5004F1ED023681A6812F083
:1027D000400F03D11A6842F040021A60E368B3F573
:1027E000006F1CD0636813B1B9F1010F52D1226B95
:1027F000236812781A73236B01332363E38E9BB231
:10280000013B9BB2E38645E02268136823F0400356
:1028100013602268136843F480431360D5E763684C
:1028200013B1B9F1010F16D1226B23681288DA6057
:10283000236B02332363E38E9BB2013B9BB2E3869F
:1028400009E0FEF797FBC01BA84202D3B5F1FF3F9A
:1028500059D1002D59D0E38E9BB2002B33D0236881
:102860009A6812F0020FECD0226B1288DA60236BA8
:1028700002332363E38E9BB2013B9BB2E386EAE71C
:10288000FEF778FBC01BA84202D3B5F1FF3F3ED153
:10289000002D3ED0E38E9BB2ABB123689A6812F054
:1028A000020FEDD0226B12781A73236B013323636E
:1028B000B4F836C01FFA8CFC0CF1FF3C1FFA8CFCFC
:1028C000A4F836C0E6E73A4629462046FFF7B6FEAA
:1028D00008B120236365A36833B901932368DA68DC
:1028E00001929B680193019B636D13B9002600E080
:1028F0000226012384F85130002384F850303046FA
:1029000003B0BDE8F0830326F3E70326F1E70326CF
:10291000EFE70326EDE70226F1E72DE9F04383B068
:102920001F460A9D90F85030012B00F0108104469C
:1029300088469146012380F85030FEF71BFB06467F
:1029400094F85130DBB26268012B0AD0B2F5827F75
:1029500040F0E380A268002A40F0E980042B40F0B8
:10296000E880B8F1000F00F0E680B9F1000F00F048
:10297000E480002F00F0E38094F85130DBB2042BA8
:1029800002D0052384F8513000236365C4F83890E1
:10299000E787A787C4F83080E786A7862364636447
:1029A00023681A6812F0400F03D11A6842F04002FF
:1029B0001A60E368B3F5006F11D063680BB1012FA3
:1029C0000BD1226B236812781A73236B01332363B4
:1029D000E38E9BB2013B9BB2E38601276BE0636809
:1029E0000BB1012F0BD1226B23681288DA60236BA5
:1029F00002332363E38E9BB2013B9BB2E386012744
:102A00001CE023689A6812F0010F0ED0E28F92B298
:102A10005AB1DA68A36B1A80A36B0233A363E38F06
:102A20009BB2013B9BB2E3870127FEF7A3FA801B11
:102A3000A84203D3B5F1FF3F40F08380E38E9BB201
:102A40001BB9E38F9BB2002B53D023689A6812F016
:102A5000020FD6D0E28E92B2002AD2D0002FD0D070
:102A6000226B1288DA60236B02332363E38E9BB2FE
:102A7000013B9BB2E3860027C3E723689A6812F004
:102A8000010F0ED0E28F92B25AB1DA68A36B1A70BE
:102A9000A36B0133A363E38F9BB2013B9BB2E3873C
:102AA0000127FEF767FA831BAB4202D3B5F1FF3F64
:102AB00049D1002D49D0E38E9BB213B9E38F9BB26D
:102AC000BBB123689A6812F0020FD6D0E28E92B2A0
:102AD000002AD2D0002FD0D0226B12781A73236B29
:102AE00001332363E38E9BB2013B9BB2E386002755
:102AF000C3E7324629462046FFF7A0FD48B9A36840
:102B000063B901932368DA6801929B680193019B82
:102B100004E020236365012000E00220012384F803
:102B20005130002384F8503003B0BDE8F083022018
:102B3000F4E70220F2E70120F0E70120EEE70120B0
:102B4000ECE70320EAE70320E8E70320E6E70220BA
:102B5000EAE7000038B504460268136923F44053DD
:102B6000C1680B43136183680269134342691343CD
:102B7000C2691A430168CB6823F4164323F00C039F
:102B80001343CB600268536923F4407381690B439C
:102B900053610368314A934206D002F58062934242
:102BA00002D0FFF7C1FC01E0FFF7CEFCE369B3F50B
:102BB000004F29D00021031849411B1841F10001A1
:102BC000C90041EA5371DB00181863684FEA8302B9
:102BD0004FEA937341F10001FDF752FB204DA5FB35
:102BE00000325109642303FB11031B013233A5FB9F
:102BF00003235B0903F0F00202EB011203F00F0361
:102C0000216813448B6038BD0023021843EB030195
:102C1000121841F10001C90041EA5271D2001018A6
:102C200041F10001626892185B41FDF729FB0C4DF0
:102C3000A5FB00325109642303FB1103DB0032338F
:102C4000A5FB03235B095A0002F4F87202EB0112A0
:102C500003F00703216813448B60D4E700100140A0
:102C60001F85EB512DE9F84305460F461646994658
:102C7000DDF820802C68246837EA04030CBF4FF08D
:102C8000010C4FF0000CB4452DD1B8F1FF3FF1D04D
:102C9000B8F1000F05D0FEF76DF9A0EB0900404533
:102CA000E8D92A6802F10C0353E8003F23F4D073FB
:102CB0000C3242E800310029F3D12A6802F11403F2
:102CC00053E8003F23F00103143242E800310029A9
:102CD000F3D1202385F83D3085F83E30002385F878
:102CE0003C30032000E00020BDE8F88358B310B565
:102CF000044690F83D300BB3242384F83D3022681D
:102D0000D36823F40053D3602046FFF723FF2268E3
:102D1000136923F4904313612268536923F02A0353
:102D200053612268D36843F40053D36000202064C9
:102D3000202384F83D3084F83E3010BD80F83C30CC
:102D4000FDF7FEFFD8E7012070472DE9F04182B082
:102D50001E4690F83E30DBB2202B5CD104460D4677
:102D6000904600295BD0002A5BD090F83C30012BC4
:102D700059D0012380F83C3000230364222280F8DC
:102D80003E200363FEF7F6F80746A4F82C80A4F86B
:102D90002E80A368B3F5805F05D04FF000080023B4
:102DA00084F83C3017E0236913B14FF00008F6E7D0
:102DB000A8460025F3E723685B68C3F3080328F8F7
:102DC000023B03E023685B682B700135E28D92B211
:102DD000013A92B2E285E38D9BB2BBB100963B46CD
:102DE000002220212046FFF73DFFF0B9002DE2D060
:102DF000A368B3F5805FE5D013B92369002BE1D058
:102E000023685B6803F07F032B70DEE7202384F8E0
:102E10003E30002000E0022002B0BDE8F081012039
:102E2000FAE70120F8E70220F6E70320F4E70000C4
:102E300082B000230193019B01330193019A0F4B50
:102E40009A4215D80369002BF5DA00230193036930
:102E500043F001030361019B01330193019A074B86
:102E60009A4208D8036913F0010FF4D1002000E062
:102E7000032002B070470320FBE700BF400D0300B2
:102E800084B010B5044603A880E80E00089B012B0F
:102E90001FD1A36B23F48033A363E36823F484037B
:102EA00023F04003E360E36823F44013E3600F9BE7
:102EB000012B09D02046FFF7BBFF069B012B1BD03F
:102EC000BDE8104004B07047E36843F48013E3604A
:102ED000F0E7E36843F04003E3602046FFF7A8FF14
:102EE0000C9B23B9A36B43F48033A363E5E7A36B87
:102EF00023F48033A363E0E7A36843F00603A360F1
:102F0000A36843F02003A360DAE70000022A0AD096
:102F10000921C26822F47052C260C36843EA812367
:102F2000C36000207047234B0B44234A93422FD9A0
:102F3000224B0B44224A93422CD9A1F57403A3F5EA
:102F40001053204A934227D9A1F18373A3F5E74395
:102F50001D4A934222D31D4B0B441D4A93421FD955
:102F60001C4B0B441C4A93421CD31C4B0B441C4A65
:102F7000934219D3A1F1B773A3F55853194A934259
:102F800014D3194B0B44194A934211D20721C0E7BD
:102F90000F21BEE70E21BCE70D21BAE70C21B8E7EF
:102FA0000B21B6E70A21B4E70921B2E70821B0E70F
:102FB0000621AEE7405327FFFF340C00401E1BFFE5
:102FC0003F420F007F4F120020D6130060B6E5FE8F
:102FD0005FE3160000D3CEFE40771B00C05BB3FE5C
:102FE000C091210020753800E05459FEE09C41005A
:102FF000836843F00103836000207047836823F0F7
:10300000010383600020704782B000230193019B7D
:1030100001330193019A0F4B9A4215D80369002B93
:10302000F5DA00230193890141F020010161019B40
:1030300001330193019A074B9A4208D8036913F0B0
:10304000200FF4D1002000E0032002B070470320DD
:10305000FBE700BF400D030082B000230193019BFA
:1030600001330193019A0E4B9A4213D80369002B46
:10307000F5DA0023019310230361019B01330193CF
:10308000019A074B9A4208D8036913F0100FF4D144
:10309000002000E0032002B070470320FBE700BFE0
:1030A000400D0300D0F800381943C0F80018002084
:1030B0007047000084B02DE9F041044607A880E87D
:1030C0000E00002306E003F1400204EB820200211F
:1030D000516001330E2BF6D9119F27BBD4F8043869
:1030E00043F00203C4F80438A36B43F40013A36352
:1030F000A36B23F40023A363A36B23F48023A363B4
:103100000023C4F8003E04F50065D4F80038C4F884
:1031100000380C9B012B14D1099B6BB90021204670
:10312000FFF7C0FF11E0A36B23F40013A363A36BAD
:1031300043F40023A363E3E701212046FFF7B2FF36
:1031400003E003212046FFF7ADFF10212046FFF7E3
:103150005BFF804608B14FF001082046FFF77CFF77
:1031600008B14FF0010800232B616B61EB610AE0AD
:10317000C3B94FF00060C2F8000900220A614FF69F
:103180007F328A6001330799994210D904EB4312C8
:1031900002F51061D2F800090028E9DB0020C2F82E
:1031A0000009EAE74FF09040C2F80009E5E7002384
:1031B0000AE0C3B14FF0904CC2F800CB002202618C
:1031C0004FF67F3282600133994211D904EB4312EA
:1031D00002F53060D2F8006B002EEADB4FF0000CF5
:1031E000C2F800CBEAE74FF0006CC2F800CBE5E78D
:1031F0002B6923F480732B610023A3616FF080435C
:1032000063610A9B1BB9A36943F01003A361A26920
:103210000B4B1343A3610D9B1BB1A36943F0080340
:10322000A361012F04D04046BDE8F04104B07047CF
:10323000A36943F0804343F00403A361F3E700BFB5
:1032400000383C80D0F8083813F0060307D0022B72
:1032500007D0062B01D00F207047022070470020B6
:1032600070470220704710B591F800C04B78012BD1
:1032700023D000F5006ED0F81C380CF00F040122AA
:10328000A24043EA0243C0F81C3800EB4C10D0F8CF
:10329000003B13F4004F0ED1D0F8003BCA68C2F3D4
:1032A0000A02097942EA8142134343F0805343F40E
:1032B0000043C0F8003B002010BDD0F81C280CF0E3
:1032C0000F0E03FA0EF39BB21343C0F81C3800EB49
:1032D0004C10D0F8003913F4004FECD1D0F800397D
:1032E000CA68C2F30A02097942EA814242EA8C5C66
:1032F00043EA0C0343F0805343F40043C0F8003921
:10330000D9E7000030B40B784A78012A26D000EBC8
:103310004313D3F8002B002A52DBD0F83C480A783C
:1033200002F00F024FF0010C0CFA02F224EA024202
:10333000C0F83C28D0F81C28097801F00F010CFADD
:1033400001FC22EA0C42C0F81C28D3F8001B234AD7
:103350000A40C3F8002B002030BC704700EB431339
:10336000D3F80029002A1EDBD0F83C580A7802F076
:103370000F02012404FA02F292B225EA0202C0F816
:103380003C28D0F81C28097801F00F018C40A4B229
:1033900022EA0404C0F81C48D3F80019104A0A4075
:1033A000C3F80029D7E7D3F8002942F00062C3F838
:1033B0000029D3F8002942F08042C3F80029D3E75E
:1033C000D3F8002B42F00062C3F8002BD3F8002B97
:1033D00042F08042C3F8002B9FE700BF0078F3EF74
:1033E000007833EC70B40B784C78012C29D000EBCA
:1033F000431000F530631C69E40CE4041C611C6993
:1034000024F0FF5424F4C0141C618C690CB1CC6806
:103410008C61CC68CC611C6944F400241C611C697B
:10342000CD69C5F3120C44EA0C041C61012A66D074
:10343000D0F8003B43F00443C0F8003B002070BCD0
:1034400070478C696CBB00EB4314D4F8105925F01D
:10345000FF5525F4C015C4F81059D4F8105945F497
:103460000025C4F81059D4F81059ED0CED04C4F837
:103470001059012A34D000EB4313D3F8002942F04D
:103480000442C3F800298B69002BD7D0D0F8343818
:103490000A7802F00F0101228A401343C0F8343841
:1034A000CCE700EB431404F510642569ED0CED0442
:1034B0002561256925F0FF5525F4C0152561CD68E6
:1034C0008E69AE4200D98D61256945F400252561DC
:1034D00025698E69C6F3120C45EA0C052561C8E71B
:1034E0004A691AB100EB4311C1F8142900EB4310EB
:1034F000D0F8002942F00442C0F800299EE70A698A
:10350000002A95D05A6193E710B483B00246002395
:103510000193487801280BD00B7802EB4313D3F8C2
:10352000000B00282DDB002003B05DF8044B704732
:103530000B7802EB4313D3F80049002C01DB002089
:10354000F2E7D3F8004944F00064C3F800490B786F
:1035500002EB4313D3F8004944F08044C3F8004918
:10356000019B01330193019C42F210739C42DBD812
:103570000B7802EB4313D3F80039002BF0DB00206B
:10358000D2E7D3F8000B40F00060C3F8000B0B78D3
:1035900002EB4313D3F8000B40F08040C3F8000B5C
:1035A000019B01330193019842F21073984208D8AD
:1035B0000B7802EB4313D3F8003B002BF0DB002029
:1035C000B2E70120B0E710B59DF8084084B9033395
:1035D0004FEA930E4FF0000C08E000EB023303F5C6
:1035E000805351F8044B1C600CF1010CF445F4D3EA
:1035F000002010BDF0B583B00B784C78012C33D08F
:1036000000EB431303F5306CDCF81040E40CE404E9
:10361000CCF81040DCF8104024F0FF5424F4C0141F
:10362000CCF810408C69002C40F0C780DCF81040CA
:10363000CD68C5F312052C43CCF81040DCF81040DF
:1036400044F40024CCF81040012A00F0D0800A791C
:10365000012A00F0D380D3F8002B42F00442C3F8D3
:10366000002B002003B0F0BD8C6984BB00EB431439
:10367000D4F8105925F0FF5525F4C015C4F8105999
:10368000D4F8105945F40025C4F81059D4F810594D
:10369000ED0CED04C4F81059012A4CD000EB431393
:1036A000D3F8004944F00444C3F800490C79012CD4
:1036B0006AD08B69002BD4D0D0F834380A7802F065
:1036C0000F0101228A401343C0F83438C9E700EBE8
:1036D0004314D4F81059ED0CED04C4F81059D4F883
:1036E000105925F0FF5525F4C015C4F81059D4F829
:1036F00010698D69CF683D44013DB5FBF7F5494F31
:1037000007EAC5453543C4F81059D4F810598E69F5
:10371000C6F312063543C4F8105904F510640D7948
:10372000012DB9D1256925F0C0452561256945F0F0
:1037300000552561B0E74A691AB100EB4314C4F89B
:1037400014290A79012A08D000EB4313D3F8002981
:1037500042F00442C3F8002983E7D0F8082812F4A5
:10376000807F08D100EB4311D1F8002942F00052CC
:10377000C1F80029E8E700EB4311D1F8002942F035
:103780008052C1F80029DFE7D0F8084814F4807FA0
:103790000CD1D3F8004944F00054C3F8004900921A
:1037A0000B8B0A780969FFF70EFF5AE7D3F8004937
:1037B00044F08054C3F80049F1E7CD682C44013C43
:1037C000B4FBF5F4A4B204FB05F5CD61DCF81050B0
:1037D000144E06EAC4442C43CCF81040DCF81040E8
:1037E000CD69C5F312052C43CCF810402CE70A69CB
:1037F000002A3FF42CAFCCF8142028E7D0F8082892
:1038000012F4807F06D1D3F8002B42F00052C3F8A7
:10381000002B20E7D3F8002B42F08052C3F8002B96
:1038200019E700BF0000F81F00B583B084460846C2
:103830004FEA920E02F00302002305E00CF58051DE
:10384000096840F8041B01337345F7D39AB10CF5AE
:10385000805CDCF8003001934FF0000C5FFA8CF3D1
:10386000D900019BCB4000F8013B0CF1010C013A5F
:1038700092B2002AF2D103B05DF804FB0B784A78CB
:10388000012A14D000EB4310D0F8002B002A06DBED
:103890002BB1D0F8003B23F08043C0F8003BD0F8B8
:1038A000003B43F40013C0F8003B0020704700EBDE
:1038B0004310D0F80029002A06DB2BB1D0F80039DC
:1038C00023F08043C0F80039D0F8003943F40013E6
:1038D000C0F80039E9E70B784A78012A0ED000EBEE
:1038E0004310D0F8003B23F40013C0F8003B0B79E1
:1038F000023BDBB2012B15D90020704700EB4310CF
:10390000D0F8003923F40013C0F800390B79023BDA
:10391000DBB2012BF0D8D0F8003943F08053C0F867
:103920000039E9E7D0F8003B43F08053C0F8003B92
:10393000E2E7D0F8003823F4FE63C0F80038D0F88E
:103940000038090101F4FE611943C0F80018002095
:103950007047D0F8003E23F00303C0F8003ED0F8D3
:10396000043823F00203C0F8043800207047D0F870
:10397000003E23F00303C0F8003ED0F8043843F0C3
:103980000203C0F804380020704742698069104083
:103990007047D0F8183800F50060C0691840000C76
:1039A0007047D0F8183800F50060C069184080B240
:1039B000704700EB4111D1F8082B00F50060406919
:1039C0001040704710B4D0F81048D0F8343801F0E7
:1039D0000F02D340DB01DBB2234300EB411000F5C3
:1039E0001060806818405DF8044B7047406900F033
:1039F0000100704738B50546C36823F0C043C36073
:103A0000012913D019BBC36843F08043C36000246D
:103A10000120FDF7B5FA01342846FFF7E7FF08B1AA
:103A2000312CF5D9322C14D0002038BDC36843F0B6
:103A30000053C36000240120FDF7A2FA0134284698
:103A4000FFF7D4FF0128EDD0312CF4D9EAE70120AB
:103A5000EBE70120E9E7D0F8003923F4FF6323F016
:103A60000703C0F80039D0F8043843F48073C0F875
:103A7000043800207047000010B4046C154B9C42C1
:103A800003D9D0F8003B002B16DB0024C0F8104B04
:103A9000D0F8104B44F40024C0F8104BD0F8104B71
:103AA00044F01804C0F8104BD0F8104B44F0C04458
:103AB000C0F8104B012903D000205DF8044B70477B
:103AC000C0F8142BD0F8003B43F08023C0F8003B33
:103AD000F2E700BF0A30544F10B5D0F8D43203F1EA
:103AE000B00250F822408CB100EB820043687BB1F9
:103AF00094F80002FF280DD09B6894F8012221461B
:103B00009847FF2384F80032002010BD0320FCE713
:103B10000020FAE70020F8E70A23038000487047F6
:103B200028010020F8B506460F4F8221384600F0E4
:103B30001FFC05460121384600F01AFC044681218D
:103B4000384600F015FC0DB11022AA711CB14022BC
:103B500022710022627118B140220271002242716A
:103B6000432333800048F8BDE4000020F8B5064642
:103B70000F4F8221384600F0FBFB054601213846F5
:103B800000F0F6FB04468121384600F0F1FB0DB150
:103B90001022AA711CB1402222710022627118B158
:103BA0004022027100224271432333800048F8BD55
:103BB000E4000020F8B506460F4F8221384600F099
:103BC000D7FB05460121384600F0D2FB044681218F
:103BD000384600F0CDFB0DB11022AA711CB10022B5
:103BE00022710222627118B1002202710222427116
:103BF000432333800048F8BDE400002038B5D0F8F6
:103C0000D432B03350F8235095B1044601F089F90D
:103C1000C5F80C02D4F8D432B03304EB83046368E3
:103C2000DB6805F50371D5F804029847002038BD1C
:103C30000320FCE738B5D0F8C852D0F8D432B033FE
:103C400050F8234084B301F00F0303EB830200EB31
:103C5000820292694AB103EBC30C05EB8C05AD6C93
:103C6000B2FBF5FC05FB1C2292B10023C4F8143210
:103C7000D0F8D432B03300EB830043681B69ABB19A
:103C80000A4604F50471D4F808029847002038BDAC
:103C900003EB830300EB830300249C61234622464D
:103CA00001F088F92046F2E70320F0E70020EEE774
:103CB000F0B583B0D0F8D43203F1B00250F82270DE
:103CC00000228DF80720ADF80420002F7BD0044699
:103CD0000D46097811F0600634D0202E6CD1EA88A8
:103CE0002AB311F0800F07D16B7887F80032EA8889
:103CF0003F2A13D8D2B212E0B03300EB83035B68E3
:103D00009B68394668789847EA88072A28BF0722BF
:103D10003946204600F0DCFE002651E0402287F8BC
:103D200001223946204600F0E8FE002648E0B03384
:103D300000EB830463689B680022294668789847F3
:103D400000263DE06F780B2F31D8DFE807F0063909
:103D50003030303030303030162690F89C32DBB2C4
:103D6000032B04D0294600F040FB032628E0022262
:103D700001A900F0ADFE3E4622E090F89C32DBB295
:103D8000032B04D0294600F030FB032618E0012263
:103D90000DF1070100F09CFE12E090F89C32DBB2BE
:103DA000032B0DD0294600F020FB032608E029460E
:103DB00000F01BFB032603E0294600F016FB032658
:103DC000304603B0F0BD0326FAE738B5044681213A
:103DD00001F0D0F8002525870121204601F0CAF81E
:103DE000A4F878518221204601F0C4F8A4F84C5080
:103DF000A4F84E50D4F8D43203F1B00254F8222083
:103E00009AB1B03304EB83035B685B689847D4F8DE
:103E1000D432B03354F8230001F08EF8D4F8D43201
:103E2000B03344F82350C4F8BC52002038BD70B5FC
:103E300004464FF4077001F07BF8002849D005468E
:103E40004FF40772002101F0EFF8D4F8D432B03308
:103E500044F82350C4F8BC52237C002B41D14FF4CA
:103E6000007302228121204601F079F8012626877D
:103E70004FF4007302223146204601F070F8A4F896
:103E800078611023A4F84E300823032282212046B3
:103E900001F065F80123A4F84C300026C5F804624F
:103EA000D4F8D432B03304EB83035B681B689847C3
:103EB000C5F81462C5F81862D5F8042262B3257CEF
:103EC0001DBB4FF400730121204601F07BF828460A
:103ED00070BDD4F8D432B033002244F82320022538
:103EE000F5E7402302228121204601F038F801261F
:103EF0002687402302223146204601F030F8A4F8FC
:103F000078611023A4F84E30BEE7402301212046FB
:103F100001F058F80025DAE70225D8E739B1D0F8E2
:103F2000D432B03300EB830041600020704703209F
:103F30007047D0F8D432B03350F823302BB1C3F8E7
:103F40000812C3F810220020704703207047D0F8F1
:103F5000D432B03350F823301BB1C3F80412002020
:103F600070470320704710B5D0F8D432B03350F802
:103F7000232092B1047C44B94FF40073D2F8042298
:103F8000012101F01FF8204610BD4023D2F8042281
:103F9000012101F017F80024F5E70324F3E798B1B5
:103FA00008B503460020C3F8B802C3F8C402C3F83A
:103FB000D00209B1C3F8B412012183F89C121A701F
:103FC000184600F063FF08BD0320704710B582B0AB
:103FD0000023ADF8063089B10446C0F8B812CB6AA8
:103FE00023B10DF106009847C4F8D002D4F8D832B6
:103FF0000133C4F8D832002002B010BD0320FBE723
:1040000008B500F0A4FF08BD08B5D0F8B83213B168
:104010001B68984708BD0020FCE708B5D0F8B83207
:104020005B68984700B908BD0320FCE738B5044633
:1040300000F2AA25284600F0C4F90123C4F89432FE
:10404000B4F8B032C4F8983294F8AA1201F01F0301
:10405000012B0DD0022B10D02BB101F08001204696
:1040600000F090FF03E02946204600F07FFB38BDBA
:104070002946204600F0B5FBF9E72946204600F026
:10408000F2FBF4E7F8B50446012380F89C320023E4
:10409000C0F894324360C0F8A43280F8A032D0F85F
:1040A000B832DBB15B68DBB1002198470746C8B97D
:1040B000402300221146204600F051FF0126A4F8BB
:1040C00064614025C4F860512B46002280212046BF
:1040D00000F045FFA68425623846F8BD0027E7E7D3
:1040E0000027E5E70327E3E701740020704790F815
:1040F0009C32DBB280F89D32042380F89C32002091
:10410000704790F89C32DBB2042B01D0002070473E
:1041100090F89D32DBB280F89C32F7E708B590F852
:104120009C32DBB2032B01D0002008BDD0F8B8329E
:10413000002BF9D0DB69002BF6D09847F4E708B5DF
:10414000D0F8D432AE3350F823205AB190F89C32D4
:10415000DBB2032B01D0002008BD136A23B19847BE
:104160000020F9E70320F7E70020F5E708B5D0F8CD
:10417000D432AE3350F823205AB190F89C32DBB2DF
:10418000032B01D0002008BD536A23B198470020BB
:10419000F9E70320F7E70020F5E70020704708B5AE
:1041A000012380F89C32D0F8B83223B15B680179E2
:1041B000984710B908BD0020FCE70320FAE700206B
:1041C00070470020704738B504460D46002943D19A
:1041D0001346D0F89422032A01D0084638BDD0F8FF
:1041E0005C11D0F86021914212D890F8AA3203F005
:1041F0001F03012B17D0022B1CD0284694F89C32A9
:10420000DBB2032B1BD0204600F08EFC2846E5E7EE
:10421000891AC0F85C118A4228BF0A46194600F084
:104220007BFC2846DAE790F8AE12FFF7C8FF0028BB
:10423000E9D1E3E790F8AE12FFF7C3FFF7E700F12B
:10424000AE0354F823301A69002ADCD0C4F8D40233
:104250001B6920469847D6E701F07F01FFF7B1FFC1
:1042600090B994F89C32DBB2032BB7D100F1AE03C6
:1042700054F823309A69002AB0D0C4F8D4029B695C
:10428000294620469847A9E70020A7E738B5044605
:104290000D4600294BD11346D0F89422022A07D0AC
:1042A00094F8A00218B1002384F8A032284638BD43
:1042B000C269016A8A420ED88A4218D094F89C32A8
:1042C000DBB2032B27D08021204600F05BFE204686
:1042D00000F035FCE4E7521AC261194600F005FC13
:1042E00000231A461946204600F06CFED8E7836981
:1042F0009942E3D8D0F898229342DFD200221146A7
:1043000000F0F3FB0021C4F898120B460A46204641
:1043100000F058FEC4E7D4F8B832DA68002AD2D0E8
:104320000022C4F8D422DB6820469847CBE741F04E
:104330008001FFF746FF90B994F89C32DBB2032B63
:10434000B5D100F1AE0354F823305A69002AAED03B
:10435000C4F8D4025B69294620469847A7E70020A5
:10436000A5E703780A8813440B8003781844704744
:10437000428803789A4218D930B583B004460D4676
:10438000ADF806306288BDF806309A420AD90DF1C0
:104390000601FFF7E6FF4378052BF3D18378AB42A4
:1043A000F0D100E0002003B030BD0020704703468C
:1043B000002002E00130C0B201331A78002AF9D19E
:1043C00070470B7803704B7843708B78CA7843EA58
:1043D000022343800B794A7943EA022383808B7955
:1043E000CA7943EA0223C380704710B5044680218E
:1043F00000F0C8FD0021204600F0C4FD10BD30B51E
:1044000083B004460D460023ADF806304A88130AEF
:10441000013B062B00F2AB80DFE803F0041F33A959
:10442000A98D9A00D0F8B4321B680DF10601007C0A
:104430009847EA88002A00F0A380BDF80630002BD8
:1044400000F099809A4228BF1A46ADF8062001462E
:10445000204600F03DFB03B030BD037C43B9D0F8EB
:10446000B8329B6A0DF10600984702234370E0E7DB
:10447000D0F8B832DB6A0DF106009847022343708A
:10448000D7E7D2B2052A52D8DFE802F003101D2A7E
:104490003744D0F8B4325B6823B10DF10601007CDB
:1044A0009847C6E72946FFF7A0FFD4E7D0F8B43213
:1044B0009B6823B10DF10601007C9847B9E72946B6
:1044C000FFF793FFC7E7D0F8B432DB6823B10DF1F3
:1044D0000601007C9847ACE72946FFF786FFBAE75C
:1044E000D0F8B4321B6923B10DF10601007C984766
:1044F0009FE72946FFF779FFADE7D0F8B4325B6953
:1045000023B10DF10601007C984792E72946FFF799
:104510006CFFA0E7D0F8B4329B6923B10DF106011E
:10452000007C984785E72946FFF75FFF93E7294618
:10453000FFF75BFF8FE7037C33B9D0F8B8325B6BD2
:104540000DF10600984774E72946FFF74EFF82E712
:10455000037C43B9D0F8B8321B6B0DF106009847C5
:104560000723437065E72946FFF73FFF73E72946B6
:10457000FFF73BFF6FE729462046FFF736FF6AE764
:10458000204600F0D1FA66E738B504468B88FBB9BF
:10459000CB88EBB94B887F2B1AD803F07F0590F8B6
:1045A0009C32DBB2032B0CD080F89E52294600F0DF
:1045B000F9FC204600F0B8FA35B1022384F89C32A9
:1045C00009E0FFF712FF06E0012384F89C3202E0C5
:1045D0002046FFF70AFF38BD70B504460E468D78B9
:1045E0002F4B1D70012D10D890F89C32DBB2022B9E
:1045F0000FD0032B26D0FFF7F8FE294B1978204661
:10460000FFF70BFD0325284670BDFFF7EEFE0325DF
:10461000F9E7A5B145602946FFF7F6FC054638B134
:1046200031462046FFF7E1FE022384F89C32EAE798
:10463000204600F079FA032384F89C32E3E700F087
:1046400073FAE0E7CDB141688D4225D0C9B2FFF7DA
:10465000E4FC134B197861602046FFF7D5FC054652
:10466000B0B131462046FFF7C0FE21792046FFF762
:10467000D4FC022384F89C32C5E7022380F89C32E4
:1046800045602946FFF7C9FC204600F04DFABAE71D
:10469000204600F049FAB6E700F046FA0025B2E7F6
:1046A000BC02002008B5CB88012B0BD190F89C32BE
:1046B000DBB2022B09D9032B09D10122011D00F025
:1046C00007FA01E0FFF791FE08BD5BB213B9FFF7EF
:1046D0008CFEF9E70146002341F8083F012200F073
:1046E000F7F9F1E708B590F89C32013B022B12D89C
:1046F000CB88022B0CD10123C360D0F8A4320BB1BC
:104700000323C360022200F10C0100F0E1F908BDAF
:10471000FFF76BFEFBE7FFF768FEF8E708B54B888D
:10472000012B04D0022B07D0FFF75FFE08BDC0F8B5
:10473000A43200F0F9F9F9E78B881B0A80F8A0325F
:1047400000F0F2F9F2E708B590F89C32013B022B39
:1047500009D84B88012B00D008BD0023C0F8A43233
:1047600000F0E2F9F8E7FFF740FEF5E738B50C781E
:1047700004F06004202C06D0402C04D06CB1FFF76C
:1047800034FE002407E0D0F8D432AE3350F82330A2
:104790009B6898470446204638BD4D78092D1DD8A2
:1047A000DFE805F012191C161C08051C0F0BFFF79B
:1047B00026FEF0E7FFF7E8FEEDE7FFF70DFF044602
:1047C000E9E7FFF76FFFE6E7FFF78CFF2C46E2E72C
:1047D000FFF7A4FFDFE7FFF7B6FFDCE7FFF705FE13
:1047E000D9E770B505460C460B7803F06003202B23
:1047F00007D0402B05D023B1FFF7F7FD0026304648
:1048000070BD95F89C32013B022B26D821790129F5
:1048100005D921462846FFF7E8FD0026EFE72846A0
:10482000FFF7CDFC68B900F1AE0255F8222091687F
:1048300089B1C5F8D40293682146284698470646B0
:1048400000E00326E388002BD9D1002ED7D12846DB
:1048500000F06AF9D3E70326F4E721462846FFF77C
:10486000C4FD0026CBE72DE9F04106460D468B88B6
:10487000DFB20C7804F06004202C08D0402C06D065
:10488000DCB1FFF7B2FD00242046BDE8F0813946D7
:104890003046FFF796FC0446002840F0F880C6F842
:1048A000D40200F1AE0356F823309B68002BEBD006
:1048B0002946304698470446E6E791F80180B8F16A
:1048C000010F31D0B8F1030F05D0B8F1000F67D058
:1048D000FFF78BFDD8E790F89C32DBB2022B04D0B7
:1048E000032B12D0FFF781FDCEE70FB1802F04D14B
:1048F00029463046FFF779FDC6E7394600F042FB0E
:104900008021304600F03EFBBEE74B8823B91FB143
:10491000802F01D0CB881BB1304600F005F9B3E7FA
:10492000394600F02FFBF7E790F89C32DBB2022B00
:1049300004D0032B12D0FFF758FDA5E70FB1802F4D
:1049400004D129463046FFF750FD9DE7394600F077
:1049500019FB8021304600F015FB95E74B88002BB2
:1049600092D117F07F0F17D1304600F0DDF83946AD
:104970003046FFF726FC002886D1C6F8D40200F1A5
:10498000AE0256F822209268002A00F08280294662
:1049900030469047044677E7394600F0FBFAE3E7F4
:1049A00090F89C22D2B2022A05D0032A27D0FFF722
:1049B0001CFD444668E70FB1802F13D113F0800F20
:1049C00014D107F07F0707EB8707B90001F5A8713D
:1049D0003144043100230B600222304600F078F8A5
:1049E000444651E7FFF701FD44464DE707F07F07D6
:1049F00007EB8707B900103131440431EAE75BB2B5
:104A0000002B1FDB07F00F0202EB820200EB820299
:104A1000B2F864211AB3002B25DB07F07F0303EB08
:104A200083039C0004F5A874344404340FB1802F30
:104A300022D10023236002222146304600F048F8AC
:104A4000444621E707F00F0202EB820200EB8202EC
:104A5000928C002ADFD1FFF7C8FC444614E7FFF729
:104A6000C4FC444610E707F07F0303EB83039C007C
:104A7000103434440434D9E73946304600F03AFA69
:104A800010B101232360D6E700232360D3E700247D
:104A9000FAE60446F8E6D0B170B50D46164604466F
:104AA000FFF785FC431C5B009BB233802B70032314
:104AB0006B70022307E0EA5401345A1CD2B2002181
:104AC000A9540233DBB22278002AF4D170BD7047BA
:104AD00008B513460222C0F894228361C3610A46D6
:104AE000002100F067FA002008BD08B513460A4609
:104AF000002100F05FFA002008BD08B5134603222C
:104B0000C0F89422C0F85831C0F85C310A46002140
:104B100000F058FA002008BD08B513460A460021E7
:104B200000F050FA002008BD08B50422C0F8942215
:104B300000231A46194600F03DFA002008BD08B5CA
:104B40000522C0F8942200231A46194600F03AFACA
:104B5000002008BD08B500220F491048FFF71FFAD2
:104B600070B90F490D48FFF731FA60B90D490B488C
:104B7000FFF7D4F950B90948FFF742FA48B908BD20
:104B8000FBF7ACFFEDE7FBF7A9FFEFE7FBF7A6FFAD
:104B9000F1E7FBF7A3FFF2E748010020C002002085
:104BA000AC00002034010020002070470020704736
:104BB0000020704710B50146044C2046FFF7C7F9A6
:104BC0002046FFF7D0F9002010BD00BFC002002032
:104BD00010B5064C002206492046FFF7AAF9054900
:104BE0002046FFF7B4F9002010BD00BFC00200202E
:104BF000840900209C05002012230B800048704788
:104C00006401002004230B800048704778010020D5
:104C1000002393421ED200B510E00CF1370C01F8CE
:104C200013C000014FEA430C0CF1010C4FF0000ED1
:104C300001F80CE00133DBB2934209D24FEA107C59
:104C4000B0F1204FE9D20CF1300C01F813C0E8E7C5
:104C50005DF804FB7047000038B50B4BD3F8100A21
:104C6000D3F8144AD3F8183AC01800D138BD074D0C
:104C70000822A91CFFF7CCFF042205F112012046EF
:104C8000FFF7C6FFF2E700BF0070FF1F7C010020A6
:104C900008B51A230B80FFF7DFFF014808BD00BFEE
:104CA0007C01002008B50A4628B905490548FFF7E8
:104CB000F2FE034808BD02490248FFF7ECFEF8E7A0
:104CC0006C0D00204C61000810B50A46034C2146CB
:104CD0000348FFF7E0FE204610BD00BF6C0D00202A
:104CE0006461000808B50A4628B905490548FFF778
:104CF000D2FE034808BD02490248FFF7CCFEF8E7A0
:104D00006C0D00207861000808B50A4628B90549ED
:104D10000548FFF7C0FE034808BD02490248FFF7F7
:104D2000BAFEF8E76C0D00208461000830B589B048
:104D30000023039304930593069307930368B3F149
:104D4000A04F01D009B030BD00250195164C236B52
:104D500043F001032363236B03F001030193019BE1
:104D60004FF4C053039302230493032306930A23AF
:104D7000079303A90D48FCF783F9636B43F08003A5
:104D800063630295636C43F480436364636C03F470
:104D900080430293029B2A4629464320FCF716F9DA
:104DA0004320FCF74BF9CDE70038024000000240F9
:104DB00008B500F2C441D0F80805FFF737F908BD7F
:104DC00008B501EBC10300EB8303D3F88C22D0F8C4
:104DD0000805FFF7F8F908BD08B501EBC10300EBC2
:104DE0008303DA6CD0F80805FFF750FA08BD08B560
:104DF000D0F80805FFF792F908BD10B50446C3685E
:104E0000022B09D10121D4F80805FFF76DF9D4F878
:104E10000805FFF737F910BDFBF760FEF2E7000069
:104E200010B50446D0F80805FFF761F92268D2F8FA
:104E3000003E43F00103C2F8003E236A23B1034A57
:104E4000136943F00603136110BD00BF00ED00E0DD
:104E500008B5D0F80805FFF754F908BD08B5D0F833
:104E60000805FFF783F908BD08B5D0F80805FFF776
:104E700066F908BD08B5D0F80805FFF78EF908BD3A
:104E800008B5D0F80805FFF78AF908BD02780AB11D
:104E90000020704710B503461548C0F80835C3F820
:104EA000C8024FF0A0430360042343600222C260A3
:104EB000002303618261C36103624362C3620363CF
:104EC000FCF72CFA80B90A4C80212046FDF722F825
:104ED000402200212046FCF7F7FF802201212046D6
:104EE000FCF7F2FF002010BDFBF7F8FDEBE700BF79
:104EF0006C0F0020D0F8C83211F0800F08D101F0FB
:104F00007F0101EBC10103EB810191F87E02704743
:104F100001F07F0101EBC10103EB810191F83E003B
:104F2000704708B5D0F8C802FCF71BFC08BD0000AC
:104F300000487047781400207047032805D8DFE840
:104F400000F005040205012070470320704708B5F2
:104F5000D0F8C802FCF779FAFFF7EFFF08BD08B5F3
:104F600094461A466346D0F8C802FCF74DFBFFF79B
:104F7000E4FF08BD08B5D0F8C802FCF78AFBFFF7CC
:104F8000DCFF08BD08B5D0F8C802FCF722FCFFF72B
:104F9000D4FF08BD08B5D0F8C802FCF75EFCFFF7E7
:104FA000CCFF08BD08B5D0F8C802FCF719FBFFF725
:104FB000C4FF08BD08B5D0F8C802FCF7DBFBFFF75B
:104FC000BCFF08BD08B5D0F8C802FCF79BFBFFF793
:104FD000B4FF08BD014B1868704700BF980100205E
:104FE00070B50D4D0D4C641BA4100026A64209D1CE
:104FF0000B4D0C4C01F024F8641BA4100026A642B3
:1050000005D170BD55F8043B98470136EEE755F8D9
:10501000043B98470136F2E7346200083462000826
:10502000346200083862000802440346934200D10B
:10503000704703F8011BF9E70FB40A4B13B51C685E
:1050400024B1A36913B9204600F05EFA05AB049AB7
:10505000A1680193204600F067FC02B0BDE8104053
:1050600004B070479801002070B50E46054618B18F
:1050700083690BB900F048FAAB69AC6813B92846EC
:1050800000F042FA2C4B9C4220D16C68636EDB0727
:1050900005D4A389980502D4A06D00F0D3FAA389A2
:1050A00019071DD52369DBB1013EA36816F8011F5E
:1050B000013BA36039BB002B38DA22460A2128467F
:1050C00000F048F8013011D00A2511E01B4B9C423A
:1050D00001D1AC68DAE71A4B9C4208BFEC68D5E70F
:1050E0002146284600F088F80028DDD04FF0FF3533
:1050F000636EDA0705D4A3899B0502D4A06D00F086
:10510000A2FA284670BD002B04DAA2699A4206DC96
:105110000A2904D023685A1C22601970C5E7224668
:10512000284600F017F80130BFD1DFE723680A25D1
:105130005A1C22601D70DBE7B8610008D8610008C6
:1051400098610008024B01461868FFF78DBF00BF49
:1051500098010020F8B50E461446054618B183693B
:105160000BB900F0D1F9214B9C422BD16C68A3699B
:10517000A360A3891A072FD523696BB3236920681D
:10518000C01A6369F6B28342374604DC21462846DA
:1051900000F026F930BBA368013BA36023685A1CCA
:1051A00022601E7063690130834204D0A389DB074B
:1051B00006D50A2E04D12146284600F011F988B9F7
:1051C0003846F8BD0A4B9C4201D1AC68CFE7094B89
:1051D0009C4208BFEC68CAE72146284600F00CF85C
:1051E0000028CBD04FF0FF37EAE700BFB8610008D6
:1051F000D861000898610008324B70B51D680646FA
:105200000C4625B1AB6913B9284600F07DF92E4B49
:105210009C420FD16C68A389B4F90C2019072CD4D7
:10522000DD0611D40923336042F04003A3814FF01F
:10523000FF303EE0254B9C4201D1AC68EBE7244BAC
:105240009C4208BFEC68E6E7580712D5616B41B194
:1052500004F14403994202D0304600F05BFA002387
:105260006363A38923F02403A3810023636023697C
:105270002360A38943F00803A38123694BB9A38961
:1052800003F42073B3F5007F03D02146304600F0CD
:1052900001FAA089B4F90C2010F001030AD0002310
:1052A000A36063695B42A361236943B910F0800086
:1052B000BAD170BD810758BF6369A360F4E70020CD
:1052C000F7E700BF98010020B8610008D861000826
:1052D000986100088A892DE9F041054610070C46BF
:1052E00058D44B68002B05DC0B6C002B02DC002033
:1052F000BDE8F081E66A002EF9D0002312F4805256
:105300002F682B6032D0606DA3895A0705D563687A
:10531000C01A636B0BB1236CC01A00230246E66A05
:10532000216A2846B047431CA38906D129681D2954
:105330002CD82A4ACA40D60728D500226260D90450
:105340002269226004D5421C01D12B6803B9606533
:10535000616B2F600029CAD004F14403994202D046
:10536000284600F0D7F900206063C1E7216A0123D5
:105370002846B047411CC7D12B68002BC4D01D2B39
:1053800001D0162B01D12F60B1E7A38943F0400370
:10539000A381ADE70F69002FA9D093070E6808BF5E
:1053A0004B690F6018BF0023A6EB07088B60B8F1AC
:1053B000000F9CDD216AA66A43463A462846B0475C
:1053C000002806DCA38943F04003A3814FF0FF309F
:1053D0008EE70744A8EB0008E9E700BF0100402082
:1053E00038B50B6905460C4613B90025284638BD6B
:1053F00018B183690BB900F087F8144B9C421BD19C
:105400006C68B4F90C30002BEFD0626ED00704D476
:10541000990502D4A06D00F015F928462146FFF742
:1054200059FF636EDA070546E0D4A3899B05DDD4F6
:10543000A06D00F008F9D9E7054B9C4201D1AC689A
:10544000DFE7044B9C4208BFEC68DAE7B86100086C
:10545000D861000898610008002310B50446C0E92F
:105460000033C0E90433836081814366C281836174
:10547000194608225C30FFF7D7FD054B6362054BE8
:10548000A362054BE362054B2462236310BD00BF9A
:10549000D15E0008F35E00082B5F00084F5F000834
:1054A000014900F0AFB800BFE153000870B56822B1
:1054B0004D1E55430E4605F1740100F097F9044660
:1054C00040B10021C0E900160C30A06005F168026F
:1054D000FFF7AAFD204670BD014800F0B3B800BF39
:1054E00099160020014800F0AEB800BF99160020C0
:1054F000014800F0A7B800BF9A160020014800F04C
:10550000A2B800BF9A16002010B50446FFF7F0FFBE
:10551000A3691BB1BDE81040FFF7F0BFC4E9123327
:105520002365134B134A1B68A262A34204BF0123E5
:10553000A361204600F020F86060204600F01CF8CF
:10554000A060204600F018F80022E06004216068A6
:10555000FFF782FFA06801220921FFF77DFFE068C5
:1055600002221221FFF778FF0123A361D2E700BFD7
:1055700094610008A1540008F8B50746FFF7ACFF96
:105580001E4B1E68B36913B93046FFF7BDFF48369E
:10559000D6E90134013B03D533680BB33668F7E72E
:1055A000B4F90C50D5B9164BE36004F158006566A8
:1055B00000F047F8FFF796FFC4E90155C4E9045528
:1055C0002560A5610822294604F15C00FFF72CFD47
:1055D000C4E90D55C4E912552046F8BD6834D9E731
:1055E00004213846FFF762FF044630600028D5D119
:1055F000FFF778FF0C233B60EEE700BF94610008E3
:105600000100FFFF2DE9F8430646884600F14804F3
:105610000027D4E90195B9F1010905D52468002CCA
:10562000F7D13846BDE8F883AB89012B07D9B5F926
:105630000E30013303D029463046C0470743683552
:10564000E9E770477047704770B50E46B1F90E1024
:10565000002996B014461D4608DAB6F90C3000222F
:105660002A601A0610D44FF480630EE06A4600F0F8
:1056700095FC0028F1DB019A02F47042A2F5005378
:105680005A425A412A60EEE740230020236016B0B8
:1056900070BD00008B8973B59D0706460C4607D583
:1056A00004F14703236023610123636102B070BDED
:1056B00001AB6A46FFF7C8FF00990546304600F087
:1056C00095F848B9B4F90C309A05EFD423F00303E8
:1056D00043F00203A381E3E70D4BB362A38920608B
:1056E00043F08003A381009B6361019B20615BB158
:1056F000B4F90E10304600F063FC28B1A38923F002
:10570000030343F00103A381A0890543A581CDE7ED
:10571000A154000837B5002944D051F8043C019049
:10572000002BA1F10404B8BFE41800F06BFC1E4A82
:105730000198136833B96360146003B0BDE830406A
:1057400000F066BCA34208D9256861198B4201BFED
:1057500019685B6849192160EDE71A465B680BB16F
:10576000A342FAD911685518A5420BD124682144E7
:105770005418A3421160E0D11C685B685360214457
:105780001160DAE702D90C230360D6E725686119B6
:105790008B4204BF19685B68636004BF49192160CC
:1057A0005460CAE703B030BD9C16002070B50E4EA1
:1057B0000C463168054611B900F07AFB306021468D
:1057C000284600F075FB431C0AD0C41C24F00304D7
:1057D000A04207D0211A284600F06AFB013001D10F
:1057E0004FF0FF34204670BDA01600202DE9F04197
:1057F000CD1C25F0030508350C2D38BF0C25002DD8
:10580000074601DBA94205D90C233B600026304640
:10581000BDE8F0812E4E00F0F5FB33681C4634BB2A
:1058200029463846FFF7C2FF431C04464DD1346871
:105830002646002E40D123683146384604EB030843
:1058400000F036FB80453AD1216803356D1A25F00A
:10585000030508350C2D38BF0C2529463846FFF7BF
:10586000A5FF01302BD023682B4423600EE0226873
:10587000521B1ED40B2A16D96119A342256018BFEA
:105880005960636808BF316062514B60384604F16B
:105890000B0600F0BDFB26F00706231DF21AB6D05A
:1058A0009B1BA350B3E76268A3420CBF32605A60EF
:1058B000ECE723466468B2E734467668B9E70C2320
:1058C0003B60384600F0A4FBA1E72560DEE700BF9F
:1058D0009C1600209368013B002B10B4936008DAFB
:1058E0009469A34201DB0A2903D15DF8044BFFF759
:1058F00031BC1368581C1060197008465DF8044BE1
:105900007047F8B506460F461446D518AC4201D18B
:10591000002007E014F8011B3A463046FFF7DAFF93
:10592000431CF3D1F8BD00002DE9F04F0D469DB0AA
:1059300014469846064618B183690BB9FFF7E4FD93
:10594000894B9D421BD175686B6ED90705D4AB8915
:105950009A0502D4A86DFFF775FEAB891B0701D528
:105960002B69EBB929463046FFF746FCC0B16B6E98
:10597000DC070ED54FF0FF301DB0BDE8F08F7B4B3C
:105980009D4201D1B568DFE7794B9D4208BFF568BC
:10599000DAE7AB899805EDD4A86DFFF754FEE9E787
:1059A0000023099320238DF82930CDF80C80302373
:1059B000DFF8C0818DF82A304FF0010923469A465E
:1059C00013F8012B0AB1252AF9D1BAEB040B0BD03D
:1059D0005B46224629463046FFF793FF013000F030
:1059E000AA80099A5A4409929AF80030002B00F0D4
:1059F000A28000234FF0FF32CDE905230AF1010A0E
:105A0000049307938DF853301A935446052214F8E3
:105A1000011B5848FAF7E4FB049AD8B9D10644BFF1
:105A200020238DF85330130744BF2B238DF85330B8
:105A30009AF800302A2B15D0079A544600204FF0D0
:105A40000A0C214611F8013B303B092B4ED9B0B16D
:105A5000079214E0A0EB080309FA03F3134304933D
:105A6000A246D2E7039B191D1B680391002BBBBF05
:105A70005B4242F0020207930793B8BF0492237877
:105A80002E2B0CD163782A2B35D1039B1A1D1B6852
:105A90000392002BB8BF4FF0FF3302340593DFF8B9
:105AA000E4A0217803225046FAF79AFB40B1402344
:105AB000A0EB0A0003FA00F0049B034301340493B3
:105AC00014F8011B2C488DF828100622FAF788FBE1
:105AD00000283FD0294B1BBB039B073323F0070350
